:020000040800F2
:1000000038040020450100083D1200083F12000896
:1000100043120008471200084B12000800000000BD
:100020000000000000000000000000004F12000867
:100030005112000800000000531200085512000879
:100040005F0100085F0100085F0100085F01000810
:100050005F0100085F0100085F0100085F01000800
:100060005F0100085F0100085F0100085F010008F0
:100070005F0100085F0100085F0100085F010008E0
:100080005F0100085F0100085F0100085F010008D0
:100090005F0100085F0100085F0100085F010008C0
:1000A0005F0100085F0100085F0100085F010008B0
:1000B0005F0100085F0100085F0100085F010008A0
:1000C0005F0100085F0100085F0100085F01000890
:1000D0005F0100085F0100085F0100085F01000880
:1000E0005F0100085F0100085F0100085F01000870
:1000F0005F0100085F0100085F0100085F01000860
:100100005F0100085F0100085F0100085F0100084F
:100110005F0100085F0100085F0100085F0100083F
:100120005F0100085F0100085F0100085F0100082F
:10013000DFF80CD001F00AFD00480047C1110008AB
:10014000380400200648804706480047FEE7FEE7DF
:10015000FEE7FEE7FEE7FEE7FEE7FEE7FEE7FEE777
:1001600047020008310100080CB500200190009002
:100170006C48006840F480306A49086000BF6948F4
:10018000006800F4003000900198401C0190009835
:1001900018B90198B0F5A06FF1D16248006800F479
:1001A000003010B10120009001E000200090009884
:1001B000012843D15C48006840F010005A490860AB
:1001C0000846006820F0030008600846006840F018
:1001D0000200086053484068524948600846406839
:1001E00048600846406840F48060486008464068BF
:1001F00020F47C1048600846406840F4E8104860ED
:100200000846006840F08070086000BF45480068FC
:1002100000F000700028F9D04248406820F0030048
:10022000404948600846406840F00200486000BF0E
:100230003C48406800F00C000828F9D10CBD10B50E
:10024000FFF792FF10BD10B53648006840F001007E
:1002500034490860084640683449084031494860DC
:1002600008460068324908402E4908600846006880
:1002700020F4802008600846406820F4FE004860B2
:100280004FF41F008860FFF7DAFF4FF00060294944
:10029000086010BD10B5002100200022214B5B68D2
:1002A00003F00C0121B1042906D0082928D107E068
:1002B000214B224C236027E01F4B204C236023E07E
:1002C000184B5B6803F47010164B5B6803F48032C4
:1002D000022303EB904022B9194B4343174C236090
:1002E0000DE0104B5B6803F4003323B1144B434320
:1002F000124C236003E0104B4343104C236003E097
:100300000D4B0E4C236000BF00BF064B5B68C3F370
:1003100003130C4CE15C094B1B68CB40074C23607A
:1003200010BD000000100240002002400000FFF855
:10033000FFFFF6FE08ED00E000127A00000000204A
:1003400000093D000400002031490143314A116099
:10035000704770B5002100230F22C47804B32D4CE0
:10036000246804F4E064C4F5E064210AC1F10403E4
:10037000CA40447804FA03F1847814402143090107
:10038000254C0678A155047804F01F050124AC40E3
:1003900005786D11AD0005F1E025C5F8004109E0D3
:1003A000047804F01F050124AC401C4D067876113A
:1003B00045F8264070BD1A4A0A400243154B1B1FE0
:1003C0001A60704739B1134A121D12680243114B6B
:1003D0001B1D1A6006E00F4A121D126882430D4B66
:1003E0001B1D1A607047042808D14FF0E0210969ED
:1003F00041F004014FF0E022116107E04FF0E021ED
:10040000096921F004014FF0E022116170470000FA
:100410000000FA050CED00E000E400E080E100E0FF
:1004200080FFFF1F01684FF6FE721140016000213E
:10043000016041608160C1608D49884208D18C496A
:100440000839496841F00F01894A083A51608AE049
:1004500087491431884208D185490839496841F0F3
:10046000F001834A083A51607DE081492831884291
:1004700008D17F490839496841F470617C4A083ADB
:10048000516070E07A493C31884208D17849083996
:10049000496841F47041764A083A516063E0744912
:1004A0005031884208D172490839496841F47021B5
:1004B0006F4A083A516056E06D496431884208D16C
:1004C0006B490839496841F47001694A083A51603A
:1004D00049E067497831884208D165490839496857
:1004E00041F07061624A083A51603CE061498842DB
:1004F00006D1011F096841F00F01021F116032E0AF
:100500005C491431884208D15A49091F096841F0F1
:10051000F001584A121F116025E0564928318842DF
:1005200008D15449091F096841F47061514A121FEA
:10053000116018E04F493C31884208D14D49091FEC
:10054000096841F470414B4A121F11600BE04949A0
:100550005031884207D14749091F096841F4702189
:10056000444A121F1160704710B50022026847F616
:10057000F0739A430C6A8B6823430C6923434C69DC
:1005800023438C692343CC6923434C6A23438C6AFD
:1005900023431A430260CB6843600B6883604B6857
:1005A000C36010BD0021016041608160C1600161D4
:1005B00041618161C161016241628162704721B123
:1005C000026842F00102026004E002684FF6FE7326
:1005D0001A40026070471AB103680B43036002E0DF
:1005E00003688B4303607047416070470146486869
:1005F00080B2704701460020002201F080531BB1F9
:100600001C4B083B1A6802E0194B083B1A6802EAC7
:1006100001030BB1012000E00020704700F0805181
:1006200019B11449091F086002E0114908394860EE
:10063000704701460020002201F080531BB10D4B92
:10064000083B1A6802E00A4B083B1A6802EA0103F9
:100650000BB1012000E00020704700F0805119B17B
:100660000449091F086002E00149083948607047E1
:10067000080002400804024010B50446CC488442F9
:1006800008D10121042000F02DFB0021042000F0FE
:1006900029FB46E0C748844208D10121082000F028
:1006A00021FB0021082000F01DFB3AE0C2488442F3
:1006B00008D10121102000F015FB0021102000F0CE
:1006C00011FB2EE0BD48844208D10121202000F01A
:1006D00009FB0021202000F005FB22E0B8488442FD
:1006E00008D10121402000F0FDFA0021402000F057
:1006F000F9FA16E0B348844208D10121802000F0C5
:10070000F1FA0021802000F0EDFA0AE0AE488442C0
:1007100007D10121801500F0E5FA0021A01500F0B5
:10072000E1FA10BD10B50121084600F0DBFA002106
:10073000012000F0D7FA10BD2DE9F0410246002556
:100740000026002000230024002791F803C00CF0AD
:100750000F0591F803C00CF0100CBCF1000F03D092
:1007600091F802C04CEA050591F800C0BCF1000FF9
:1007700031D0146800202BE04FF0010C0CFA00F38C
:10078000B1F800C00CEA03069E4220D183004FF06E
:100790000F0C0CFA03F7BC4305FA03FC4CEA040403
:1007A00091F803C0BCF1280F06D14FF0010C0CFAF0
:1007B00000FCC2F814C00AE091F803C0BCF1480F75
:1007C00005D14FF0010C0CFA00FCC2F810C0401C1F
:1007D0000828D1D31460B1F800C0BCF1FF0F34DD9C
:1007E000546800202EE000F1080C4FF0010808FAD0
:1007F0000CF3B1F800C00CEA03069E4221D183003D
:100800004FF00F0C0CFA03F7BC4305FA03FC4CEA5B
:10081000040491F803C0BCF1280F05D100F1080CC5
:1008200008FA0CF8C2F8148091F803C0BCF1480F24
:1008300007D100F1080C4FF0010808FA0CF8C2F8D3
:100840001080401C0828CED35460BDE8F0814FF6DC
:10085000FF710180022181700421C170704702463E
:10086000002093680B400BB1012000E0002070478E
:100870000146886880B2704702460020D3680B406A
:100880000BB1012000E0002070470146C86880B22B
:10089000704701617047416170470AB1016100E032
:1008A00041617047C16070474FF480320A438261F2
:1008B0008161826182698269704702460020434BF0
:1008C00018684FF68073184040EA021008433F4B07
:1008D000186070473E49C8617047F0B50A4600236A
:1008E00000240021002500F00046B6F1004F02D19F
:1008F000364EF16901E0354E7168C0F3034583B2AD
:1009000000F44016B6F5401F08D121F070612F4E5B
:10091000766826F070662D4F7E6012E000F4801637
:10092000B6F5801F06D1032606FA05F4A14341F06F
:10093000706106E0460D360103FA06F6B14341F058
:10094000706122B1460D360103FA06F6314300F01C
:100950000046B6F1004F02D11C4EF16101E01B4E82
:100960007160F0BD30B500228B071C0F0F2303FA16
:1009700004F2164B08338C1053F824309343134C75
:1009800008348D1044F8253023468C1053F8243059
:100990008C07240F00FA04F423430C4C08348D1008
:1009A00044F8253030BD0A49DC310860704700004A
:1009B00000080140000C01400010014000140140FB
:1009C00000180140001C01400020014000000140CF
:1009D00000002042DF48006840F00100DD49086067
:1009E00008464068DC490840DA4948600846006823
:1009F000DA490840D74908600846006820F480209A
:100A000008600846406820F4FE0048604FF41F006C
:100A100088607047CF49096821F48031CD4A116060
:100A20001146096821F480211160B0F5803F03D0A0
:100A3000B0F5802F0ED106E0C649096841F4803137
:100A4000C44A116007E0C349096841F4A021C14AC2
:100A5000116000E000BF00BF704710B501460022E2
:100A6000002300204A11012A02D1BA4C236806E073
:100A7000022A02D1B74C236A01E0B64C636A01F046
:100A80001F02012494401C400CB1012000E0002012
:100A900010BD38B5002000900024002500BF312093
:100AA000FFF7DBFF05460098401C00900098B0F56A
:100AB000A06F01D0002DF2D03120FFF7CEFF08B19A
:100AC000012400E00024204638BD01460020A14A50
:100AD000106820F0F80040EAC10010607047A0499B
:100AE00008607047024600209A4B586820F47C103A
:100AF00042EA01031843974B5860704798490866CB
:100B0000704701460020934A506820F003000843D4
:100B1000506070478F48406800F00C0070470146F5
:100B200000208C4A506820F0F00008435060704765
:100B300001460020874A506820F4E0600843506076
:100B4000704701460020834A506820F4605040EA14
:100B5000C1005060704729B17E4A527A02437D4BF2
:100B60005A7204E07B4A527A82437A4B5A72704737
:100B70007B49D8310860704701460020754A5068AB
:100B800020F440400843506070470021714A2032F1
:100B90001170704A82F82010012802D004280AD16E
:100BA00004E001216B4A2032117005E00521694AF9
:100BB0002032117000E000BF00BF70476949086033
:100BC00070476449096A0143624A11627047654986
:100BD00044390860704730B500210022002400230A
:100BE0005C4D6D6805F00C0121B1042905D0082980
:100BF00023D105E05C4D056022E05B4D05601FE000
:100C0000544D6D6805F47012524D6D6805F48034D2
:100C1000022505EB92421CB9544D554305600BE08B
:100C20004C4D6D6805F400351DB1504D55430560C0
:100C300002E04D4D5543056002E04B4D056000BF9D
:100C400000BF444D6D6805F0F0010909484D6B5C2B
:100C50000568DD4045603F4D6D6805F4E061090AB7
:100C6000434D6B5C4568DD4085603A4D6D6805F429
:100C70006051C90A3E4D6B5C4568DD40C560354D2D
:100C80006D6805F44041890B3A4D6B5CC568B5FB56
:100C9000F3F5056130BD29B12E4A526902432D4B4F
:100CA0005A6104E02B4A526982432A4B5A617047C9
:100CB00029B1284A92690243264B9A6104E0254AE9
:100CC00092698243234B9A61704729B1214AD269C4
:100CD0000243204BDA6104E01E4AD26982431D4B75
:100CE000DA61704729B11B4AD2680243194BDA60B6
:100CF00004E0184AD2688243164BDA60704729B183
:100D0000144A12690243134B1A6104E0114A126932
:100D10008243104B1A61704712494039086070478E
:100D20000F49C86470470B49C87170470948406A49
:100D300040F0807007494862704701460020054A2C
:100D400092680A400AB1012000E000207047014982
:100D500088727047001002400000FFF8FFFFF6FEA7
:100D6000000042428004424200127A0000093D0025
:100D7000140000202400002010B50446FB488442E3
:100D800009D101218803FFF7ADFF00214FF4804016
:100D9000FFF7A8FF32E0F648844209D10121480458
:100DA000FFF7ADFF00214FF40030FFF7A8FF25E06B
:100DB000F048844209D101218804FFF7A0FF0021F7
:100DC0004FF48020FFF79BFF18E0EB48844209D1E5
:100DD0000121C804FFF793FF00214FF40020FFF723
:100DE0008EFF0BE0E548844208D101210805FFF79A
:100DF00086FF00214FF48010FFF781FF10BD2DE921
:100E0000F04786B005460E460024A24600BFA14624
:100E10000027B08900B100BF2F462C8A4CF6FF7026
:100E20000440F08804432C82AC894EF6F310044051
:100E3000B08831890843718908430443AC81AC8A86
:100E40004FF6FF400440B0890443AC8201A8FFF78D
:100E5000C2FEC648874202D1DDF810A001E0DDF8ED
:100E60000CA0A88900F4004040B10AEBCA0000EBD6
:100E70000A1031684900B0FBF1F807E00AEBCA003C
:100E800000EB0A1031688900B0FBF1F86420B8FB70
:100E9000F0F004012009642101FB1089A88900F405
:100EA000004040B1322000EBC900B0FBF1F000F08F
:100EB0000700044308E0322000EB09106421B0FB76
:100EC000F1F000F00F0004432C8106B0BDE8F0877C
:100ED0004FF41651016000218180C18001810C21F5
:100EE000418100218181704710B502460020108A9F
:100EF0004FF2FF0318400B884C8823438C88234310
:100F0000CC8823431843108210BD0021018041800A
:100F10008180C180704721B1828942F40052828170
:100F200004E082894DF6FF731A4082817047F0B564
:100F30000346002400260025002040F66A17B94227
:100F400000D100BF1846C1F3421401F01F0601276B
:100F500007FA06F5012C01D10C3004E0022C01D176
:100F6000103000E014301AB107682F43076002E028
:100F70000768AF430760F0BD1AB1838A0B438382D1
:100F800002E0838A8B4383827047028A4FF6F073B4
:100F90001A400282028A0A430282704782894FF213
:100FA000FF731A40828182890A438281704721B18E
:100FB000828942F00202828104E082894FF6FD7349
:100FC0001A4082817047028A4FF6DF731A4002820C
:100FD000028A0A430282704721B1028A42F48042A7
:100FE000028204E0028A4BF6FF731A4002827047C5
:100FF000C1F308028280704701468888C0F3080068
:101000007047818941F0010181817047028BD2B222
:101010000283028B42EA012202837047028B02F4B0
:101020007F420283028B0A430283704721B1828A86
:1010300042F02002828204E0828A4FF6DF731A4077
:101040008282704721B1828A42F01002828204E0DB
:10105000828A4FF6EF731A408282704721B1828AEA
:1010600042F00802828204E0828A4FF6F7731A4047
:101070008282704721B1828942F40042828103E07A
:101080008289C2F30E028281704721B1828A42F4C2
:101090000062828204E0828A4FF2FF731A408282E9
:1010A0007047828A4FF6FB731A408282828A0A4313
:1010B0008282704721B1828A42F00202828204E079
:1010C000828A4FF6FD731A408282704702460020E2
:1010D000B1F5007F00D100BF13880B400BB1012098
:1010E00000E00020704701F40072B2F5007F00D1EB
:1010F00000BFCA430280704770B502460024002337
:101100000025002040F66A16B14200D100BFC1F3AD
:10111000421501F01F03012606FA03F3012D02D147
:101120009689334006E0022D02D1168A334001E051
:10113000968A33400C12012606FA04F416883440CD
:1011400013B10CB1012000E0002070BD10B50022E9
:10115000002340F66A14A14200D100BF0A12012404
:101160009440A3B2DC43048010BD0000003801406D
:101170000044004000480040004C00400050004047
:1011800008B500F077FC00F019FA0120022318A23C
:1011900000210090084600F026FC0120022316A240
:1011A00010210090002000F01EFC0120022313A259
:1011B00010210090402000F016FC00F094F808BDCB
:1011C00008B500F049F800F0B3F80DA000F0D0FC2D
:1011D00013A000F0CDFC00BFFFF7D2FF07E0012015
:1011E0000223154A20210090002000F0FCFBF6E7C6
:1011F0007275626265723A004C6D3A00526D3A0047
:10120000D5E2CAC7D2BBB8F6B4AEBFDAD6D0B6CF35
:10121000BDD3CAD5BBD8CFD4CAB5D1E90A00000026
:10122000CAE4C8EBCAFDBEDDB2A2D2D4BBD8B3B506
:10123000BCFCBDE1CAF80A0028000020704700BFCE
:10124000FEE700BFFEE700BFFEE700BFFEE7704716
:10125000704770477047000010B586B001218803C1
:10126000FFF726FD01210520FFF722FD4FF4007056
:10127000ADF8140018208DF8170003208DF8160023
:1012800005A95A48FFF758FA4FF48060ADF81400EA
:1012900004208DF8170005A95448FFF74DFA544C67
:1012A0004FF4165001900020ADF80800ADF80A0088
:1012B000ADF80C00ADF810000C20ADF80E0001A93F
:1012C0002046FFF79CFD012240F225512046FFF702
:1012D0002EFE01212046FFF71EFE40212046FFF78B
:1012E00002FF06B010BD00B58BB001210846FFF724
:1012F000D2FC3F48001D00903E4801900020029023
:1013000041F28830039000200490059006900790E9
:1013100008904FF48050099000200A9069463648A2
:10132000FFF722F901213448FFF749F90BB000BD5E
:1013300008B54FF4E060FFF707F825208DF80000AE
:1013400000208DF8010001208DF802008DF80300C7
:101350006846FEF7FEFF08BD70B504460D462946F7
:101360002046FFF745FE00BF80212046FFF7AEFE76
:101370000028F9D070BD2DE9F04107460D4616460C
:10138000002400BF295D3846FFF7E6FF641CB44225
:10139000F8D3BDE8F08170B506460C46002500BFC5
:1013A000615D3046FFF7D8FF6D1C605D0028F7D106
:1013B00070BD70B504460D46E1B20D48FFF718FE4A
:1013C00000BF80210A48FFF781FE0028F9D020469F
:1013D00070BD10B5044600BF20210548FFF776FE1A
:1013E0000028F9D00248FFF707FE10BD00080140B1
:1013F00000380140280000205800024070B5044623
:1014000008251021F748FFF744FA0221F548FFF7B5
:1014100042FA15E004F0800020B10121F148FFF705
:1014200038FA03E00121EF48FFF735FA0221ED48D1
:10143000FFF72FFA0221EB48FFF72DFA6006040EA2
:10144000281EA5F10101CDB2E4D170BD70B50446EE
:1014500008251021E348FFF71EFA0221E148FFF7B3
:101460001AFA15E004F0800020B10121DD48FFF7F1
:1014700010FA03E00121DB48FFF70DFA0221D948F9
:10148000FFF707FA0221D748FFF705FA6006040EB6
:10149000281EA5F10101CDB2E4D170BD70B504469E
:1014A0000D46B02101EBE501C8B2FFF7CFFF1021D7
:1014B00041EA1410FFF7CAFF04F00F0141F00100E8
:1014C000FFF7C4FF70BD70B50646002415E004F1B7
:1014D000B001C8B2FFF7BAFF0120FFF7B7FF102035
:1014E000FFF7B4FF002504E03046FFF787FF681CD4
:1014F000C5B2802DF8DB601CC4B2082CE7DB70BDE0
:1015000070B5002415E004F1B001C8B2FFF79EFFEA
:101510000120FFF79BFF1020FFF798FF002504E054
:101520000020FFF76BFF681CC5B2802DF8DB601C44
:10153000C4B2082CE7DB70BD70B50446B02101EBE6
:10154000E401C8B2FFF782FF0120FFF77FFF102000
:10155000FFF77CFF002504E00020FFF74FFF681C29
:10156000C5B2802DF8DB70BD2DE9F04104460D4673
:101570001646B02101EBE501C8B2FFF767FF012075
:10158000FFF764FF1020FFF761FF274604E000200B
:10159000FFF734FF781CC7B2B742F8DBBDE8F08133
:1015A00009E040F2375100BF0A1EA1F1010399B2D0
:1015B000FAD1421E90B20028F3D1704710B5022133
:1015C0008848FFF766F908218648FFF764F932205A
:1015D000FFF7E6FF08218348FFF75BF9AE20FFF72E
:1015E00035FF0020FFF732FF1020FFF72FFF4020CC
:1015F000FFF72CFF8120FFF729FFCF20FFF726FF01
:10160000A120FFF723FFC820FFF720FFA620FFF748
:101610001DFFA820FFF71AFF3F20FFF717FFD32079
:10162000FFF714FF0020FFF711FFD520FFF70EFF93
:101630008020FFF70BFFD920FFF708FFF120FFF70D
:1016400005FFDA20FFF702FF1220FFF7FFFEDB2085
:10165000FFF7FCFE4020FFF7F9FE2020FFF7F6FE23
:101660000220FFF7F3FE8D20FFF7F0FE1420FFF7B6
:10167000EDFEA420FFF7EAFEA620FFF7E7FEAF206D
:10168000FFF7E4FE0020FFF71EFF00210846FFF7EA
:1016900005FF10BD70B505460C462046E11704EB6A
:1016A0005171C910A4EBC10201219140CEB2B02109
:1016B00001EBE401C8B2FFF7C9FE102141EA1510A1
:1016C000FFF7C4FE05F00F00FFF7C0FE3046FFF73E
:1016D00095FE70BD70B504460D461646B02101EB6F
:1016E000E501C8B2FFF7B2FE102141EA1410FFF77E
:1016F000ADFE04F00F00FFF7A9FE3046FFF77EFEB7
:1017000070BD2DE9F04704468846154699464FF0CE
:10171000000A002600271FE0E85D203800F0FF0ADD
:101720007E2C04DD002408F1010000F0FF08414692
:101730002046FFF7B3FE002608E00AEB4A0109EB5A
:101740004101885DFFF75AFE701CC6B2062EF4DB1D
:10175000A01DC4B2781CC7B2E85D0028DCD1BDE88A
:10176000F0872DE9F04706460F469046994600253A
:101770000024A24630E018F80A002038C5B2782EBE
:1017800002DD0026781CC7B239463046FFF786FED8
:10179000002406E009EB0511085DFFF72FFE601C31
:1017A000C4B2082CF6DB07F10800C1B23046FFF7DF
:1017B00075FE002407E009EB05112144087AFFF7C4
:1017C0001DFE601CC4B2082CF5DB06F10800C6B291
:1017D0000AF1010000F0FF0A18F80A000028CAD137
:1017E000BDE8F087000C01402DE9F05F82460F460E
:1017F00090469946DDF828B00024002601256DE0CA
:101800000024012513E019F8040018F80610884296
:101810000BD109EB04004178701C18F800008142DC
:1018200003D1C4EBC400450005E0A01CC4B219F804
:1018300004007F28E7DC00BFBAF1760F03DD4FF02C
:10184000000A781CC7B239465046FFF727FE012D23
:1018500021D039465046FFF721FE002407E01BF84F
:101860000500FFF7CBFD681C85B2601CC4B20E2CCE
:10187000F5DB781CC1B25046FFF710FE002407E0EC
:101880001BF80500FFF7BAFD681C85B2601CC4B2E6
:101890000E2CF5DB1CE0701CC6B239465046FFF733
:1018A000FDFD002404E00020FFF7A8FD601CC4B289
:1018B000102CF8DB781CC1B25046FFF7EFFD002476
:1018C00004E00020FFF79AFD601CC4B2102CF8DB86
:1018D0000AF10E0000F0FF0AB01CC6B218F80600AC
:1018E00000288DD1BDE8F09F2DE9F05F82460F46BC
:1018F00090469946DDF828B00024002501266CE0CA
:101900000024012611E019F8040018F80510884297
:1019100009D109EB0400407808EB050149788842B9
:1019200001D1260105E0A01CC4B219F804007F28EB
:10193000E9DC00BFBAF1760F03DD4FF0000A781C36
:10194000C7B239465046FFF7A9FD012E22D03946CD
:101950005046FFF7A3FD002407E01BF80600FFF741
:101960004DFD701C86B2601CC4B2102CF5DB07F173
:101970000800C1B25046FFF791FD002407E01BF8B4
:101980000600FFF73BFD701C86B2601CC4B2102C31
:10199000F5DB1CE0681CC5B239465046FFF77EFDFA
:1019A000002404E00020FFF729FD601CC4B2102CC5
:1019B000F8DB781CC1B25046FFF770FD002404E04C
:1019C0000020FFF71BFD601CC4B2102CF8DB0AF1ED
:1019D000100000F0FF0AA81CC5B218F80500002886
:1019E0008ED1BDE8F09F2DE9FC4706468846154696
:1019F00099460A9F002438E0285D7F2817DD285D7E
:101A00008DF80400281940788DF8050000208DF825
:101A100006004248424B01AA414600903046FFF77B
:101A200063FF06F11000C6B2A01CC4B21DE0285D21
:101A30008DF8040000208DF80500012F09D1394BE5
:101A400001AA41463046FFF78CFE06F10800C6B2F7
:101A500009E0032F07D1344B01AA41463046FFF776
:101A600050FEB01DC6B2601CC4B2285D0028C3D1B0
:101A7000BDE8FC8708B501210920FFF719F901210C
:101A80002A48FEF72AFF01212948FEF726FF1B20DE
:101A9000ADF8000010208DF8030003208DF802003F
:101AA00069462448FEF748FE08BDF8B505460E46CF
:101AB000144600202049C870642094FBF0F01F49B0
:101AC00008700A2094FBF0F00A2190FBF1F201FB70
:101AD00012001B4908700A2094FBF0F100FB114032
:101AE00018490870184815490978405C124908706F
:101AF000154813490978405C0F494870124811494C
:101B00000978405C0C498870012002230A4631465E
:101B100000902846FFF767FFF8BD0000531E00083D
:101B2000E81D0008F3240008C01B00080004300072
:101B300000023000000C01402C000020300000208A
:101B40003100002032000020032B0008064C074D16
:101B500006E0E06840F0010394E80700984710347D
:101B6000AC42F6D3FEF7E8FA102B0008302B000841
:101B7000014A024900F013B8B313000834000020F2
:101B800002E008C8121F08C1002AFAD17047704746
:101B9000002001E001C1121F002AFBD170472DE98E
:101BA000F04116460F460446002503E03946B0478B
:101BB000641C6D1C20780028F8D12846BDE8F0810F
:101BC0000000000000000000002F000000000700DF
:101BD000070000147F147F1400242A7F2A12006259
:101BE0006408132300364955225000000503000005
:101BF00000001C224100000041221C000014083E8D
:101C000008140008083E0808000000A06000000852
:101C100008080808000060600000002010080402A6
:101C2000003E5149453E0000427F40000042615164
:101C30004946002141454B31001814127F100027FE
:101C400045454539003C4A494930000171090503C1
:101C500000364949493600064949291E00003636F2
:101C60000000000056360000000814224100001455
:101C70001414141400004122140800020151090632
:101C800000324959513E007C1211127C007F4949B3
:101C90004936003E41414122007F4141221C007FE4
:101CA00049494941007F09090901003E4149497AF2
:101CB000007F0808087F0000417F4100002040416C
:101CC0003F01007F08142241007F40404040007FD8
:101CD000020C027F007F0408107F003E4141413E1C
:101CE000007F09090906003E4151215E007F091964
:101CF00029460046494949310001017F0101003F61
:101D00004040403F001F2040201F003F4038403FE0
:101D10000063140814630007087008070061514944
:101D2000454300007F41410000552A552A550000D7
:101D300041417F0000040201020400404040404055
:101D4000000001020400002054545478007F4844ED
:101D5000443800384444442000384444487F003824
:101D60005454541800087E0901020018A4A4A47C4D
:101D7000007F080404780000447D40000040808417
:101D80007D00007F102844000000417F4000007C5F
:101D900004180478007C080404780038444444386B
:101DA00000FC242424180018242418FC007C0804B7
:101DB000040800485454542000043F444020003C90
:101DC0004040207C001C2040201C003C4030403C17
:101DD000004428102844001CA0A0A07C00446454A7
:101DE0004C44141414141414B2E2BEE0C0EBD6DC5C
:101DF000B3A4C3E6BBFDB6C8B8DFC6C2C4B6D2C77B
:101E0000CBD1CBF7CEC0D0C7B4F3D0A1B2E9BCC719
:101E1000C2BCC9BEB3FDCFB5CDB3D6B5C9E8B5A573
:101E2000BCDBB9ABC7EAD4AAD1AFC3BFB5E7B3D85F
:101E3000D1B9BEADCEB3A1E3A94FD0CDBAC5B0E6FE
:101E4000B1BECAA3D3E0BFD5BCE4B7B5BBD8CDCB38
:101E5000B3F6001060028C00FE02F202FE00F800F1
:101E6000FF000004047E018047300F1027004780E8
:101E70007F0000003E22E2223E00FE222222222299
:101E8000E20200203F201F1111007F4444444444DB
:101E9000474000040404F484D4A5A6A4D484F40424
:101EA00004040000FE0202123A1613121A32428291
:101EB0007E00000000FE82929292FE92929282FE3A
:101EC00000000080601F00001E1212121E40807F62
:101ED00000000080808080FF8080A09088848280C5
:101EE00080800000000000FF402112040810202024
:101EF0004040000202E22222F22E2222E22222E2CC
:101F00000202000000FF40407F4949497F4040FFF6
:101F1000000000202424A4FE232220FC0404040446
:101F2000FC000010080601FF010680631901010989
:101F300033C0000000FC242424FC252624FC242497
:101F400024040040308F80844C55252525554C8035
:101F500080800004040404F49495969494F404049A
:101F600004040000FE02027A4A4A4A4A4A7A02827D
:101F7000FE00002020FF202000F8888888FF888845
:101F8000A8180010301F0888601F80432C102846B6
:101F90008180000808C848484849CE48484848C891
:101FA0000808000000FF444444447F44444444FF84
:101FB000000000008060F807001CE0010600E01E41
:101FC000000000010000FF00804020130C1320409F
:101FD000808000101010FF109000FE9180FF809212
:101FE000FE00000444827F01008082462A132A46B4
:101FF0008280008060242424A4643F2424A4242418
:10200000A0600000804829094D8D7B0B09284C9861
:10201000000000000202020202FE0202020202FEB0
:102020000000004040404040407F4040404142412D
:10203000404000000000BE2A2A2AEA2A2A2A3E003E
:10204000000000004442494949497F494949494102
:1020500040000020202020202020FF2020202020C1
:1020600020200080804020100C0300030C10204032
:10207000808000000000E0000000FF000000204021
:10208000800000080403000040807F000000000082
:10209000010E00404424A4948C84FF848C94A424D6
:1020A0004440004040405F4A4A4A4A4A4A4A5F40E8
:1020B000404000404042CC0000008484848484FC82
:1020C0000000000000007F2010003F4040404041E1
:1020D0004070008080829292929292929292FE80C0
:1020E000808000404022241048807F040818242269
:1020F00040400080FE8282FE80FE8282FE8000F8E8
:1021000000FF00403F0020BF403F40807F00004F65
:10211000807F0000FE225A8620102824E324281005
:1021200020200000FF040827110D41817F010509CF
:10213000310000000022322AA6A262211109810189
:10214000000000004222130B42827E02020A122388
:102150004600002030AC63300088C8A8998E88A85B
:10216000C8880022672212128040300F00003F40D2
:10217000407100008060F80704E4A4A4BFA4A4E4B4
:10218000040000010000FF40407F4A4A4A4A4A7F5B
:10219000404000404042CC0040A09E8282829EA0EF
:1021A0002020000000003F908840432C102846412A
:1021B0008080000000F8494A4C48F8484C4A49F8E9
:1021C00000000010101312121212FF12121212133A
:1021D000101000008060F8074020900C030C902045
:1021E000404000010000FF0080601F000000FF0071
:1021F0000000000080402018068000071820408062
:1022000000000001002070282621202024386000D2
:102210000101000000FE20202000F2121AD6121246
:10222000F2020000001F080402804F20180710204F
:102230004F80002020222222E2222222E222222299
:10224000202000804020100C030000003F40404050
:10225000407800404042CC0020D04C4B48C8080891
:10226000F800000000007F20101F1212125F804053
:102270003F000020100CF312125292121212F202BE
:1022800002000001011F11111115195191513F1147
:102290001101000000F888888888FF88888888F8FD
:1022A00000000000001F080808087F888888889FB1
:1022B00080F000106002CC8080FC4020FF1008F805
:1022C00000000004047E0100003F40404F404447AE
:1022D0004078000000FE0282828282FA828282823C
:1022E00082020080601F40404040407F4040445890
:1022F0004040002030AC63201880824222121A260F
:10230000428000226722121212404242427E424222
:102310004240002030AC63201800084848FF48487D
:1023200048080022672212121200020202FF021263
:10233000221E0000000000000C12120C0000000021
:10234000000000000000000000000000000000008D
:102350000000000008F00808F00808F00022312909
:102360002600000000070000070000070000000032
:102370000000002022A27E2222FE2222007C0000F9
:10238000FF0000444249484848497E484848494A75
:10239000414000808080BEA2A2A2A2A2A2A2BE80D2
:1023A00080800000000006050404044484443C00CE
:1023B00000000000FE20203F2000FC24E424222313
:1023C000E20000807F0101FF80601F804126182607
:1023D0004180000010101010D030FF30D0101010CD
:1023E00010000010080402090808FF080809020488
:1023F000081000484AFA0AFE09F949A80000F0004E
:1024000000FF0022110B04FF0409122300000F40FB
:10241000807F0080804020504844C3444850204082
:102420008080000040221A0242827F0202020A12C9
:10243000600000100C442414040506040414244411
:10244000140C00004040414141417F414141414025
:1024500040000000F8010600F0121212F20202021F
:10246000FE000000FF0000001F1111111F0040803E
:102470007F0000404042CC0000FC24A4242222A380
:102480006200000040201F20584750484542454800
:102490005040000000FE0202F2121212F20202FE8E
:1024A00000000000007F2020272424242720207FF4
:1024B000000000404042CC0000FF4949C949497F23
:1024C0008000000040201F20405F484440414245BA
:1024D00058400000007C40404040FF40404040FCED
:1024E000000000007C40404040407F404040404071
:1024F000FC000000000000000000000000000000E0
:10250000000000000000F800000000000000333070
:1025100000000000100C06100C0600000000000077
:1025200000000040C07840C0784000043F04043FF1
:10253000040400007088FC08300000001820FF210F
:102540001E0000F008F000E018000000211C031E2F
:10255000211E0000F00888700000001E21232419AD
:1025600027211010160E00000000000000000000DF
:10257000000000000000E01804020000000007183E
:1025800020400000020418E000000000402018076E
:10259000000000404080F0804040000202010F0136
:1025A000020200000000F0000000000101011F0114
:1025B000010100000000000000000080B070000079
:1025C0000000000000000000000000000101010107
:1025D0000101010000000000000000003030000098
:1025E0000000000000000080601804006018060170
:1025F00000000000E010080810E000000F1020208C
:10260000100F00001010F8000000000020203F20F4
:10261000200000007008080888700000302824227C
:102620002130000030088888483000001820202021
:10263000110E000000C02010F80000000704242440
:102640003F240000F808888808080000192120208D
:10265000110E0000E0108888180000000F112020E3
:10266000110E0000380808C83808000000003F00BC
:102670000000000070880808887000001C222121DA
:10268000221C0000E010080810E0000000312222A7
:10269000110F00000000C0C000000000000030303A
:1026A00000000000000080000000000000806000CA
:1026B0000000000000804020100800000102040813
:1026C0001020004040404040404000040404040406
:1026D00004040000081020408000000020100804BE
:1026E000020100007048080808F0000000003036C1
:1026F000010000C030C828E810E000071827242394
:10270000140B000000C038E0000000203C2302024F
:1027100027382008F8888888700000203F20202073
:10272000110E00C0300808080838000718202020C3
:1027300010080008F808080810E000203F202020BA
:10274000100F0008F88888E8081000203F20202398
:1027500020180008F88888E8081000203F200003AF
:10276000000000C0300808083800000718202022A8
:102770001E020008F808000008F808203F210101A7
:10278000213F20000808F8080800000020203F2012
:1027900020000000000808F8080800C08080807F42
:1027A00000000008F888C028180800203F200126F3
:1027B00038200008F8080000000000203F202020FA
:1027C00020300008F8F800F8F80800203F003F002B
:1027D0003F200008F830C00008F808203F2000071C
:1027E000183F00E01008080810E0000F102020201B
:1027F000100F0008F808080808F000203F21010128
:10280000010000E01008080810E0000F1824243828
:10281000504F0008F8888888887000203F20000307
:102820000C3020007088080808380000382021216A
:10283000221C00180808F8080818000000203F2093
:1028400000000008F808000008F808001F202020F9
:10285000201F000878880000C83808000007380EDC
:10286000010000F80800F80008F800033C07000722
:102870003C0300081868808068180820302C030387
:102880002C30200838C800C83808000000203F203D
:1028900000000010080808C8380800203826212049
:1028A000201800000000FE020202000000007F402D
:1028B000404000000C30C000000000000000010695
:1028C00038C00000020202FE000000004040407FCD
:1028D00000000000000402020204000000000000EA
:1028E0000000000000000000000000808080808068
:1028F0008080800002020400000000000000000050
:102900000000000000808080800000001924222246
:10291000223F2008F8008080000000003F112020A6
:10292000110E000000008080800000000E112020A9
:10293000201100000000808088F800000E11202087
:10294000103F200000808080800000001F22222293
:10295000221300008080F0888888180020203F2003
:102960002000000000808080808000006B949494A0
:1029700093600008F8008080800000203F21000064
:10298000203F2000809898000000000020203F2079
:10299000200000000000809898000000C080808027
:1029A0007F000008F8000080808000203F24022D76
:1029B000302000000808F8000000000020203F2020
:1029C0002000008080808080808000203F20003FA9
:1029D00020003F8080008080800000203F21000098
:1029E000203F200000808080800000001F202020E9
:1029F000201F00808000808000000080FFA1202038
:102A0000110E000000008080808000000E11202048
:102A1000A0FF80808080008080800020203F2120D7
:102A20000001000000808080808000003324242486
:102A3000241900008080E0808000000000001F203A
:102A40002000008080000000808000001F202020E7
:102A5000103F20808080000080808000010E3008C0
:102A600006010080800080008080800F300C030C05
:102A7000300F0000808000808080000020312E0E0A
:102A8000312000808080000080808080818E7018DE
:102A900006010000808080808080000021302C2290
:102AA00021300000000000807C02020000000000D5
:102AB0003F404000000000FF00000000000000FF59
:102AC0000000000002027C800000000040403F0047
:102AD00000000000060101020204040000000000E2
:102AE000000000000080C0E0F0F8FCF8F0E0C080DA
:102AF0000000000000000103070F1F0F0703010083
:102B000000000030313233343536373839000000B8
:102B1000302B00080000002038000000801B000857
:102B2000682B00083800002000040000901B0008FB
:102B300000A24A040000000000000000010203049B
:102B40000607080900000000010203040102030453
:102B50000607080902040608000000000000000043
:082B600000000000000000006D
:0400000508000131BD
:00000001FF
